S01A00006C63645F6B65796261645F6C6179657265642E73726563C3
S11300000C942A000C9447000C9447000C9447006D
S11300100C9447000C9447000C9447000C94470040
S11300200C9447000C9447000C9447000C94470030
S11300300C9447000C9447000C9447000C94470020
S11300400C9447000C9447000C9447000C94470010
S11300500C94470011241FBECFE5D8E0DEBFCDBF0E
S113006010E0A0E6B0E0E2E6FFE002C005900D92E9
S1130070A03AB107D9F720E0A0EAB0E001C01D9290
S1130080AA3FB207E1F70E9479060C94AF070C94DB
S113009000002091A00034E0239F800D911D1124C5
S11300A0FC01408351836283738308950F931F93EC
S11300B0CF93DF934B30510561057105A9F134F4F9
S11300C04A3051056105710571F090C04C305105FD
S11300D06105710509F447C04D305105610571058D
S11300E009F463C083C030E0220F331F220F331F93
S11300F08C01020F131FE9012496C80FD91FF801C0
S11301006081718182819381288139814A815B81F7
S11301100E941307F8012083318342835383288389
S113012039834A835B8362C030E0220F331F220F7E
S1130130331FFC01E20FF31FE9012496C80FD91FF6
S11301402081318142815381688179818A819B81B7
S11301500E94030760837183828393836883798316
S11301608A839B8343C030E0220F331F220F331F47
S1130170FC01E20FF31F2C5F3F4FEC01C20FD31FB2
S113018080819181A281B381488159816A817B8177
S1130190841B950BA60BB70B80839183A283B38337
S11301A088839983AA83BB8321C030E0220F331F45
S11301B0220F331FFC01E20FF31F2C5F3F4FEC01B2
S11301C0C20FD31F408151816281738188819981DB
S11301D0AA81BB81840F951FA61FB71F80839183BB
S11301E0A283B38388839983AA83BB83DF91CF914E
S11301F01F910F910895CF92DF92EF92FF92CF93C8
S1130200DF93DC0191E0940F8091A0009817E0F552
S1130210292F30E0FB0184E0989FE00DF11D1124AB
S1130220C080D180E280F380CD28CE28CF2861F52C
S1130230ED0184E0489FC00DD11D112410C0292F69
S113024030E0FB0184E0989FE00DF11D1124C08093
S1130250D180E280F380CD28CE28CF28A9F4C880AD
S1130260D980EA80FB80F9013196EE0FFF1FEE0F73
S1130270FF1FEA0FFB1FC082D182E282F3829F5FDD
S11302808091A0009817D8F29FEF940FB1F1292F15
S113029030E0220F331F220F331FFB01E20FF31F45
S11302A0C080D180E280F380CD28CE28CF2829F5E4
S11302B0FD0184E0489FE00DF11D112411C0292F98
S11302C030E0220F331F220F331FEB01C20FD31F65
S11302D0C880D980EA80FB80CD28CE28CF2869F455
S11302E0C080D180E280F380ED01C20FD31FC882A9
S11302F0D982EA82FB82915011F7DF91CF91FF906E
S1130300EF90DF90CF900895EF92FF921F93CF93D9
S1130310DF937C019091A000992309F49DC0EB0127
S113032010E0FE0184E0189FE00DF11D112480818E
S11303309181A281B3810A97A105B10589F4108244
S1130340118212821382212F4AE050E060E070E0B3
S1130350C7010E945600412FBE01C7010E94FB0045
S11303601F5F8091A0001817E0F2882309F474C07D
S113037010E0FE0184E0189FE00DF11D112480813E
S11303809181A281B3810B97A105B10589F41082F3
S1130390118212821382212F4BE050E060E070E062
S11303A0C7010E945600412FBE01C7010E94FB00F5
S11303B01F5F8091A0001817E0F2882309F44CC055
S11303C010E0FE0184E0189FE00DF11D11248081EE
S11303D09181A281B3810C97A105B10589F41082A2
S11303E0118212821382212F4CE050E060E070E011
S11303F0C7010E945600412FBE01C7010E94FB00A5
S11304001F5F8091A0001817E0F2882329F110E003
S1130410FE0184E0189FE00DF11D1124808191817B
S1130420A281B3810D97A105B10589F410821182CF
S113043012821382212F4DE050E060E070E0C7018A
S11304400E945600412FBE01C7010E94FB001F5F9E
S11304508091A0001817E0F2DF91CF911F91FF90D7
S1130460EF900895FC0188961192119211921192C5
S1130470E817F907C9F708954F925F926F927F9238
S11304808F929F92AF92BF92CF92DF92EF92FF92A0
S1130490CF93DF93CDB7DEB72A970FB6F894DEBFBC
S11304A00FBECDBF1092F9000E9439046B017C018C
S11304B00E9495042B013C010E94F1044B015C0154
S11304C00E944D05C40CD51CE61CF71CC80CD91C95
S11304D0EA1CFB1CC60ED71EE81EF91EC114D1046B
S11304E0E104F10481F58091F900813009F0E6C05E
S11304F08091A5009091A600A091A700B091A800BA
S1130500880F991FAA1FBB1FAC01BD01440F551FC3
S1130510661F771F440F551F661F771F840F951F93
S1130520A61FB71F8093A5009093A600A093A700D1
S1130530B093A8001092A1001092A2001092A30000
S11305401092A400BBC08AE0C816D104E104F104EF
S11305500CF486C08EE0C816D104E104F10444F51D
S11305604091A5005091A6006091A7007091A80049
S113057081ED90E00E944900B701A60189EA90E06C
S11305800E9449001092A5001092A6001092A700A4
S11305901092A8001092A1001092A2001092A30041
S11305A01092A4008091A0008F5F8093A00086C069
S11305B08EE0C816D104E104F104B9F54091A50018
S11305C05091A6006091A7007091A80081ED90E081
S11305D00E94490069EA70E081ED90E00E94840184
S11305E06091D5007091D6008091D7009091D80089
S11305F02AE0AE014F5F5F4F0E946E07CE01019665
S11306000E9463061092A5001092A6001092A70003
S11306101092A8001092A1001092A2001092A300C0
S11306201092A4001092A00049C081ED90E00E94B5
S1130630320289EA90E00E9432021092A5001092E0
S1130640A6001092A7001092A8001092A100109288
S1130650A2001092A3001092A4001092A0002EC039
S11306608091A5009091A600A091A700B091A80048
S1130670880F991FAA1FBB1FAC01BD01440F551F52
S1130680661F771F440F551F661F771F840F951F22
S1130690A61FB71FC80ED91EEA1EFB1EC092A500D6
S11306A0D092A600E092A700F092A8001092A100B8
S11306B01092A2001092A3001092A4002A960FB6E2
S11306C0F894DEBF0FBECDBFDF91CF91FF90EF90C6
S11306D0DF90CF90BF90AF909F908F907F906F905E
S11306E05F904F900895982F97708695869586957C
S11306F0813021F130F08230F1F1833009F458C0B7
S11307000895613069F44BB321E030E0B90102C0CF
S1130710660F771F9A95E2F7CB01842B8BBB089564
S11307204BB321E030E0B90102C0660F771F9A9500
S1130730E2F7CB01809584238BBB0895613069F483
S113074048B321E030E0B90102C0660F771F9A95E3
S1130750E2F7CB01842B88BB089548B321E030E055
S1130760B90102C0660F771F9A95E2F7CB01809515
S1130770842388BB0895613069F445B321E030E0F7
S1130780B90102C0660F771F9A95E2F7CB01842B5B
S113079085BB089545B321E030E0B90102C0660F7E
S11307A0771F9A95E2F7CB018095842385BB089542
S11307B0613069F442B321E030E0B90102C0660F50
S11307C0771F9A95E2F7CB01842B82BB089542B33D
S11307D021E030E0B90102C0660F771F9A95E2F775
S11307E0CB018095842382BB0895282F277086959A
S11307F086958695813079F028F08230A9F083308F
S1130800E1F024C089B390E002C0959587952A95BC
S1130810E2F78170089586B390E002C095958795BC
S11308202A95E2F78170089583B390E002C095950C
S113083087952A95E2F78170089580B390E002C00D
S1130840959587952A95E2F78170089580E008953B
S113085061E080E10E94730361E081E10E9473031F
S113086061E082E10E94730361E083E10E9473030B
S1130870089561E087E10E94730360E084E10E94CF
S1130880730361E085E10E94730361E086E10E94E5
S1130890730380E10E94F50381110DC087E30E9478
S11308A0220680E10E94F5038823D9F367E070E013
S11308B080E090E0089581E10E94F50381110DC06C
S11308C088E30E94220681E10E94F5038823D9F37C
S11308D068E070E080E090E0089582E10E94F50312
S11308E081110DC089E30E94220682E10E94F50372
S11308F08823D9F369E070E080E090E0089583E113
S11309000E94F50381110DC08FE20E94220683E14B
S11309100E94F5038823D9F36AE070E080E090E058
S1130920089560E070E0CB01089561E084E10E94E5
S1130930730360E085E10E94730361E086E10E9435
S1130940730361E087E10E94730380E10E94F50371
S113095081110DC084E30E94220680E10E94F50308
S11309608823D9F364E070E080E090E0089581E1A9
S11309700E94F50381110DC085E30E94220681E1E6
S11309800E94F5038823D9F365E070E080E090E0ED
S1130990089582E10E94F50381110DC086E30E944F
S11309A0220682E10E94F5038823D9F366E070E011
S11309B080E090E0089583E10E94F50381110DC069
S11309C08AE20E94220683E10E94F5038823D9F378
S11309D06BE070E080E090E0089560E070E0CB01AF
S11309E0089561E084E10E94730361E085E10E945F
S11309F0730360E086E10E94730361E087E10E9473
S1130A00730380E10E94F50381110DC081E30E940C
S1130A10220680E10E94F5038823D9F361E070E0A7
S1130A2080E090E0089581E10E94F50381110DC0FA
S1130A3082E30E94220681E10E94F5038823D9F310
S1130A4062E070E080E090E0089582E10E94F503A6
S1130A5081110DC083E30E94220682E10E94F50306
S1130A608823D9F363E070E080E090E0089583E1A7
S1130A700E94F50381110DC08DE20E94220683E1DC
S1130A800E94F5038823D9F36CE070E080E090E0E5
S1130A90089560E070E0CB01089561E084E10E9474
S1130AA0730361E085E10E94730361E086E10E94C3
S1130AB0730360E087E10E94730380E10E94F50301
S1130AC081110DC081E00E94B70580E10E94F50309
S1130AD08823D9F36FE070E080E090E0089581E12D
S1130AE00E94F50381110FC080E30E94220681E079
S1130AF08093F90081E10E94F5038823D9F360E033
S1130B0070E0CB01089582E10E94F503811119C0C0
S1130B108DE30E9422062FEF89EF90E02150804060
S1130B209040E1F700C0000081E00E94B70582E137
S1130B300E94F5038823D9F36EE070E080E090E032
S1130B40089583E10E94F50381110DC08BE20E9498
S1130B50220683E10E94F5038823D9F36DE070E057
S1130B6080E090E0089560E070E0CB010895CF93B9
S1130B70C82F8BB38F708BBB9C2F907F892B8BBB23
S1130B8060E089E00E94730360E08BE00E947303DD
S1130B908FE891E00197F1F700C0000061E08BE07D
S1130BA00E9473038FE19EE40197F1F700C00000F7
S1130BB08BB3282F2F702BBB30E1C39FC0011124AE
S1130BC0822B8BBB60E089E00E94730360E08BE0C2
S1130BD00E9473038FE891E00197F1F700C00000D1
S1130BE061E08BE00E947303CF9108952FEF89EFAA
S1130BF090E0215080409040E1F700C0000060E0A8
S1130C008AE00E94730383E30E94B70587E592E0BC
S1130C100197F1F700C0000082E30E94B70588E263
S1130C200E94B70586E00E94B7058CE00E94B705D4
S1130C3081E00E94B7058FE39FE10197F1F700C0BF
S1130C4000000895CF93C82F8BB38F708BBB9C2F5C
S1130C50907F892B8BBB61E089E00E94730360E085
S1130C608BE00E9473038FE891E00197F1F700C0D5
S1130C70000061E08BE00E9473038FE39FE1019722
S1130C80F1F700C000008BB3282F2F702BBB30E18D
S1130C90C39FC0011124822B8BBB60E08BE00E94B8
S1130CA073038FE891E00197F1F700C0000061E061
S1130CB08BE00E9473038FE39FE10197F1F700C07B
S1130CC00000CF9108950F931F93CF93FC0180816F
S1130CD0882359F08F01C0E00E942206CF5FF801FB
S1130CE0EC0FF11D80818111F7CFCF911F910F91EE
S1130CF008950E9482060E94F6050E9428040E941C
S1130D003C02FDCFE0E6F0E080E041E050E0282F37
S1130D102770982F969596959695913009F130F015
S1130D209230C1F1933009F44FC067C09081913083
S1130D3059F49AB3BA0102C0660F771F2A95E2F7F5
S1130D409B01292B2ABB59C03AB3BA0102C0660FD2
S1130D50771F2A95E2F7962F909593239ABB4DC05F
S1130D609081913059F497B3BA0102C0660F771F8E
S1130D702A95E2F79B01292B27BB3FC037B3BA0161
S1130D8002C0660F771F2A95E2F7962F909593235A
S1130D9097BB33C09081913059F494B3BA0102C027
S1130DA0660F771F2A95E2F79B01292B24BB25C0E8
S1130DB034B3BA0102C0660F771F2A95E2F7962F63
S1130DC09095932394BB19C09081913059F491B3B9
S1130DD0BA0102C0660F771F2A95E2F79B01292BFF
S1130DE021BB0BC031B3BA0102C0660F771F2A952D
S1130DF0E2F7962F9095932391BB8F5F32968032C2
S1130E0009F085CF0895DB018F939F930E943207E9
S1130E10BF91AF91A29F800D911DA39F900DB29F92
S1130E20900D11240895052E97FB1EF400940E9442
S1130E302A0757FD07D00E943D0707FC03D04EF454
S1130E400C942A0750954095309521953F4F4F4F6C
S1130E505F4F089590958095709561957F4F8F4F62
S1130E609F4F08950E945F07A59F900DB49F900D1A
S1130E70A49F800D911D11240895A1E21A2EAA1B8E
S1130E80BB1BFD010DC0AA1FBB1FEE1FFF1FA21736
S1130E90B307E407F50720F0A21BB30BE40BF50B33
S1130EA0661F771F881F991F1A9469F760957095BC
S1130EB0809590959B01AC01BD01CF010895A29F3F
S1130EC0B001B39FC001A39F700D811D1124911D1A
S1130ED0B29F700D811D1124911D0895BB272A30E6
S1130EE051F4992342F4BDE29095809570956195F3
S1130EF07F4F8F4F9F4F0C947E07BB27FA01A62F7D
S1130F006217710581059105330B30FB66F0AA2742
S1130F10660F771F881F991FAA1FA21710F0A21B24
S1130F2063953850A9F7A05DAA3308F0A95DA19391
S1130F3036F7B111B1931082CA010C949F07DC01FA
S1130F40FC01672F71917723E1F7329704C07C91FC
S1130F506D9370836291AE17BF07C8F30895F89438
S1050F60FFCFBD
S1130F62010101010101010101010101010101016B
S1130F72010101010101010101010101010101015B
S1130F820000000000000000010101010101010153
S1130F92010101010101010101010101010101013B
S9030000FC
